{
  "contractName": "TestOraclizeCall",
  "abi": [
    {
      "constant": true,
      "inputs": [],
      "name": "amt",
      "outputs": [
        {
          "name": "",
          "type": "uint256"
        }
      ],
      "payable": false,
      "stateMutability": "view",
      "type": "function"
    },
    {
      "constant": true,
      "inputs": [],
      "name": "price",
      "outputs": [
        {
          "name": "",
          "type": "uint256"
        }
      ],
      "payable": false,
      "stateMutability": "view",
      "type": "function"
    },
    {
      "inputs": [],
      "payable": false,
      "stateMutability": "nonpayable",
      "type": "constructor"
    },
    {
      "anonymous": false,
      "inputs": [
        {
          "indexed": false,
          "name": "text",
          "type": "string"
        }
      ],
      "name": "Log",
      "type": "event"
    },
    {
      "anonymous": false,
      "inputs": [
        {
          "indexed": false,
          "name": "text",
          "type": "string"
        }
      ],
      "name": "LogFailure",
      "type": "event"
    },
    {
      "anonymous": false,
      "inputs": [
        {
          "indexed": false,
          "name": "amt",
          "type": "uint256"
        }
      ],
      "name": "LogPrice",
      "type": "event"
    },
    {
      "constant": false,
      "inputs": [
        {
          "name": "myid",
          "type": "bytes32"
        },
        {
          "name": "result",
          "type": "string"
        }
      ],
      "name": "__callback",
      "outputs": [],
      "payable": false,
      "stateMutability": "nonpayable",
      "type": "function"
    },
    {
      "constant": false,
      "inputs": [
        {
          "name": "_myid",
          "type": "bytes32"
        },
        {
          "name": "_result",
          "type": "string"
        },
        {
          "name": "proof",
          "type": "bytes"
        }
      ],
      "name": "__callback",
      "outputs": [],
      "payable": false,
      "stateMutability": "nonpayable",
      "type": "function"
    },
    {
      "constant": true,
      "inputs": [],
      "name": "oraclizeGetPrice",
      "outputs": [
        {
          "name": "",
          "type": "uint256"
        }
      ],
      "payable": false,
      "stateMutability": "view",
      "type": "function"
    },
    {
      "constant": false,
      "inputs": [],
      "name": "updatePrice",
      "outputs": [],
      "payable": true,
      "stateMutability": "payable",
      "type": "function"
    }
  ],
  "bytecode": "0x606060405234156200001057600080fd5b62000028640100000000620002e06200002e82021704565b62000cf0565b60007f3d0eca545e3cd19801e484dd4ad2c6e1a2c2384066ae97c5c003f8f6ec700bc36200009d60408051908101604052600381527f55524c000000000000000000000000000000000000000000000000000000000060208201526401000000006200062a6200019a82021704565b60405190815260200160405180910390a16200017e6040805190810160405280600381526020017f55524c000000000000000000000000000000000000000000000000000000000081525060806040519081016040908152604982527f6a736f6e2868747470733a2f2f6d696e2d6170692e63727970746f636f6d706160208301527f72652e636f6d2f646174612f70726963653f6673796d3d455448267473796d73908201527f3d555344292e55534400000000000000000000000000000000000000000000006060820152640100000000620008386200041f82021704565b6000908152600760205260409020805460ff1916600117905550565b60008054600160a060020a03161580620001d65750600054620001d490600160a060020a031664010000000062000bb06200083182021704565b155b15620001f857620001f6600064010000000062000bb46200083582021704565b505b60008054600160a060020a0316906338cc483190604051602001526040518163ffffffff167c0100000000000000000000000000000000000000000000000000000000028152600401602060405180830381600087803b15156200025b57600080fd5b6102c65a03f115156200026d57600080fd5b5050506040518051600154600160a060020a0390811691161490506200032c5760008054600160a060020a0316906338cc483190604051602001526040518163ffffffff167c0100000000000000000000000000000000000000000000000000000000028152600401602060405180830381600087803b1515620002f057600080fd5b6102c65a03f115156200030257600080fd5b505050604051805160018054600160a060020a031916600160a060020a0392909216919091179055505b600154600160a060020a031663524f3889836000604051602001526040518263ffffffff167c01000000000000000000000000000000000000000000000000000000000281526004018080602001828103825283818151815260200191508051906020019080838360005b83811015620003b157808201518382015260200162000397565b50505050905090810190601f168015620003df5780820380516001836020036101000a031916815260200191505b5092505050602060405180830381600087803b1515620003fe57600080fd5b6102c65a03f115156200041057600080fd5b50505060405180519392505050565b600080548190600160a060020a031615806200045d57506000546200045b90600160a060020a031664010000000062000bb06200083182021704565b155b156200047f576200047d600064010000000062000bb46200083582021704565b505b60008054600160a060020a0316906338cc483190604051602001526040518163ffffffff167c0100000000000000000000000000000000000000000000000000000000028152600401602060405180830381600087803b1515620004e257600080fd5b6102c65a03f11515620004f457600080fd5b5050506040518051600154600160a060020a039081169116149050620005b35760008054600160a060020a0316906338cc483190604051602001526040518163ffffffff167c0100000000000000000000000000000000000000000000000000000000028152600401602060405180830381600087803b15156200057757600080fd5b6102c65a03f115156200058957600080fd5b505050604051805160018054600160a060020a031916600160a060020a0392909216919091179055505b600154600160a060020a031663524f3889856000604051602001526040518263ffffffff167c01000000000000000000000000000000000000000000000000000000000281526004018080602001828103825283818151815260200191508051906020019080838360005b83811015620006385780820151838201526020016200061e565b50505050905090810190601f168015620006665780820380516001836020036101000a031916815260200191505b5092505050602060405180830381600087803b15156200068557600080fd5b6102c65a03f115156200069757600080fd5b5050506040518051915050670de0b6b3a764000062030d403a0201811115620006c457600091506200082a565b600154600160a060020a031663adf59f99826000878782604051602001526040518563ffffffff167c0100000000000000000000000000000000000000000000000000000000028152600401808481526020018060200180602001838103835285818151815260200191508051906020019080838360005b83811015620007565780820151838201526020016200073c565b50505050905090810190601f168015620007845780820380516001836020036101000a031916815260200191505b50838103825284818151815260200191508051906020019080838360005b83811015620007bc578082015183820152602001620007a2565b50505050905090810190601f168015620007ea5780820380516001836020036101000a031916815260200191505b50955050505050506020604051808303818588803b15156200080b57600080fd5b6125ee5a03f115156200081d57600080fd5b5050505060405180519250505b5092915050565b3b90565b60006200084f64010000000062000d2c6200085582021704565b92915050565b60008062000885731d3b2638a7cc9f2cb3d298a3da7a90b67e5506ed64010000000062000bb06200083182021704565b1115620009075760008054600160a060020a031916731d3b2638a7cc9f2cb3d298a3da7a90b67e5506ed179055620008fe60408051908101604052600b81527f6574685f6d61696e6e657400000000000000000000000000000000000000000060208201526401000000006200105062000c3582021704565b50600162000c32565b60006200093673c03a2615d5efaf5f49f60b7bb6583eaec212fdf164010000000062000bb06200083182021704565b1115620009af5760008054600160a060020a03191673c03a2615d5efaf5f49f60b7bb6583eaec212fdf1179055620008fe60408051908101604052600c81527f6574685f726f707374656e33000000000000000000000000000000000000000060208201526401000000006200105062000c3582021704565b6000620009de73b7a07bcf2ba2f2703b24c0691b5278999c59ac7e64010000000062000bb06200083182021704565b111562000a575760008054600160a060020a03191673b7a07bcf2ba2f2703b24c0691b5278999c59ac7e179055620008fe60408051908101604052600981527f6574685f6b6f76616e000000000000000000000000000000000000000000000060208201526401000000006200105062000c3582021704565b600062000a8673146500cfd35b22e4a392fe0adc06de1a1368ed4864010000000062000bb06200083182021704565b111562000aff5760008054600160a060020a03191673146500cfd35b22e4a392fe0adc06de1a1368ed48179055620008fe60408051908101604052600b81527f6574685f72696e6b65627900000000000000000000000000000000000000000060208201526401000000006200105062000c3582021704565b600062000b2e736f485c8bf6fc43ea212e93bbf8ce046c7f1cb47564010000000062000bb06200083182021704565b111562000b64575060008054600160a060020a031916736f485c8bf6fc43ea212e93bbf8ce046c7f1cb475179055600162000c32565b600062000b937320e12a1f859b3feae5fb2a0a32c18f5a65555bbf64010000000062000bb06200083182021704565b111562000bc9575060008054600160a060020a0319167320e12a1f859b3feae5fb2a0a32c18f5a65555bbf179055600162000c32565b600062000bf87351efaf4c8b3c9afbd5ab9f4bbc82784ab6ef8faa64010000000062000bb06200083182021704565b111562000c2e575060008054600160a060020a0319167351efaf4c8b3c9afbd5ab9f4bbc82784ab6ef8faa179055600162000c32565b5060005b90565b600281805162000c4a92916020019062000c4e565b5050565b828054600181600116156101000203166002900490600052602060002090601f016020900481019282601f1062000c9157805160ff191683800117855562000cc1565b8280016001018555821562000cc1579182015b8281111562000cc157825182559160200191906001019062000ca4565b5062000ccf92915062000cd3565b5090565b62000c3291905b8082111562000ccf576000815560010162000cda565b6111398062000d006000396000f30060606040526004361061005e5763ffffffff60e060020a60003504166316eab96b811461006357806327dc297e1461008857806338bbfa50146100e0578063673a7e28146101785780638805493f14610180578063a035b1fe14610193575b600080fd5b341561006e57600080fd5b6100766101a6565b60405190815260200160405180910390f35b341561009357600080fd5b6100de600480359060446024803590810190830135806020601f820181900481020160405190810160405281815292919060208401838380828437509496506101ac95505050505050565b005b34156100eb57600080fd5b6100de600480359060446024803590810190830135806020601f8201819004810201604051908101604052818152929190602084018383808284378201915050505050509190803590602001908201803590602001908080601f0160208091040260200160405190810160405281815292919060208401838380828437509496506101de95505050505050565b6100de6102e0565b341561018b57600080fd5b61007661042d565b341561019e57600080fd5b610076610471565b60065481565b6101da828260006040518059106101c05750595b818152601f19601f830116810160200160405290506101de565b5050565b60008381526007602052604090205460ff1615156101fb57600080fd5b610203610477565b600160a060020a031633600160a060020a031614151561022257600080fd5b7fcf34ef537ac33ee1ac626ca1587a0a7e8e51561e5514f8cb36afa1c5102b3bab8260405160208082528190810183818151815260200191508051906020019080838360005b83811015610280578082015183820152602001610268565b50505050905090810190601f1680156102ad5780820380516001836020036101000a031916815260200191505b509250505060405180910390a16102c382610617565b60055550506000908152600760205260409020805460ff19169055565b60007f3d0eca545e3cd19801e484dd4ad2c6e1a2c2384066ae97c5c003f8f6ec700bc361033f60408051908101604052600381527f55524c0000000000000000000000000000000000000000000000000000000000602082015261062a565b60405190815260200160405180910390a16104116040805190810160405280600381526020017f55524c0000000000000000000000000000000000000000000000000000000000815250608060405190810160405280604981526020017f6a736f6e2868747470733a2f2f6d696e2d6170692e63727970746f636f6d706181526020017f72652e636f6d2f646174612f70726963653f6673796d3d455448267473796d7381526020017f3d555344292e5553440000000000000000000000000000000000000000000000815250610838565b6000908152600760205260409020805460ff1916600117905550565b600061046b60408051908101604052600381527f55524c0000000000000000000000000000000000000000000000000000000000602082015261062a565b90505b90565b60055481565b60008054600160a060020a031615806104a257506000546104a090600160a060020a0316610bb0565b155b156104b3576104b16000610bb4565b505b60008054600160a060020a0316906338cc483190604051602001526040518163ffffffff1660e060020a028152600401602060405180830381600087803b15156104fc57600080fd5b6102c65a03f1151561050d57600080fd5b5050506040518051600154600160a060020a0390811691161490506105b05760008054600160a060020a0316906338cc483190604051602001526040518163ffffffff1660e060020a028152600401602060405180830381600087803b151561057557600080fd5b6102c65a03f1151561058657600080fd5b505050604051805160018054600160a060020a031916600160a060020a0392909216919091179055505b600154600160a060020a031663c281d19e6000604051602001526040518163ffffffff1660e060020a028152600401602060405180830381600087803b15156105f857600080fd5b6102c65a03f1151561060957600080fd5b505050604051805191505090565b6000610624826000610bbe565b92915050565b60008054600160a060020a03161580610655575060005461065390600160a060020a0316610bb0565b155b15610666576106646000610bb4565b505b60008054600160a060020a0316906338cc483190604051602001526040518163ffffffff1660e060020a028152600401602060405180830381600087803b15156106af57600080fd5b6102c65a03f115156106c057600080fd5b5050506040518051600154600160a060020a0390811691161490506107635760008054600160a060020a0316906338cc483190604051602001526040518163ffffffff1660e060020a028152600401602060405180830381600087803b151561072857600080fd5b6102c65a03f1151561073957600080fd5b505050604051805160018054600160a060020a031916600160a060020a0392909216919091179055505b600154600160a060020a031663524f3889836000604051602001526040518263ffffffff1660e060020a0281526004018080602001828103825283818151815260200191508051906020019080838360005b838110156107cd5780820151838201526020016107b5565b50505050905090810190601f1680156107fa5780820380516001836020036101000a031916815260200191505b5092505050602060405180830381600087803b151561081857600080fd5b6102c65a03f1151561082957600080fd5b50505060405180519392505050565b600080548190600160a060020a03161580610865575060005461086390600160a060020a0316610bb0565b155b15610876576108746000610bb4565b505b60008054600160a060020a0316906338cc483190604051602001526040518163ffffffff1660e060020a028152600401602060405180830381600087803b15156108bf57600080fd5b6102c65a03f115156108d057600080fd5b5050506040518051600154600160a060020a0390811691161490506109735760008054600160a060020a0316906338cc483190604051602001526040518163ffffffff1660e060020a028152600401602060405180830381600087803b151561093857600080fd5b6102c65a03f1151561094957600080fd5b505050604051805160018054600160a060020a031916600160a060020a0392909216919091179055505b600154600160a060020a031663524f3889856000604051602001526040518263ffffffff1660e060020a0281526004018080602001828103825283818151815260200191508051906020019080838360005b838110156109dd5780820151838201526020016109c5565b50505050905090810190601f168015610a0a5780820380516001836020036101000a031916815260200191505b5092505050602060405180830381600087803b1515610a2857600080fd5b6102c65a03f11515610a3957600080fd5b5050506040518051915050670de0b6b3a764000062030d403a0201811115610a645760009150610ba9565b600154600160a060020a031663adf59f99826000878782604051602001526040518563ffffffff1660e060020a028152600401808481526020018060200180602001838103835285818151815260200191508051906020019080838360005b83811015610adb578082015183820152602001610ac3565b50505050905090810190601f168015610b085780820380516001836020036101000a031916815260200191505b50838103825284818151815260200191508051906020019080838360005b83811015610b3e578082015183820152602001610b26565b50505050905090810190601f168015610b6b5780820380516001836020036101000a031916815260200191505b50955050505050506020604051808303818588803b1515610b8b57600080fd5b6125ee5a03f11515610b9c57600080fd5b5050505060405180519250505b5092915050565b3b90565b6000610624610d2c565b6000610bc8611063565b5082600080805b8351811015610d0f577f3000000000000000000000000000000000000000000000000000000000000000848281518110610c0557fe5b016020015160f860020a900460f860020a02600160f860020a03191610158015610c7657507f3900000000000000000000000000000000000000000000000000000000000000848281518110610c5757fe5b016020015160f860020a900460f860020a02600160f860020a03191611155b15610ccc578115610c9557851515610c8d57610d0f565b600019909501945b600a830292506030848281518110610ca957fe5b016020015160f860020a900460f860020a0260f860020a90040383019250610d07565b838181518110610cd857fe5b016020015160f860020a900460f860020a02600160f860020a031916602e60f860020a021415610d0757600191505b600101610bcf565b6000861115610d215785600a0a830292505b509095945050505050565b600080610d4c731d3b2638a7cc9f2cb3d298a3da7a90b67e5506ed610bb0565b1115610dbc5760008054600160a060020a031916731d3b2638a7cc9f2cb3d298a3da7a90b67e5506ed179055610db460408051908101604052600b81527f6574685f6d61696e6e65740000000000000000000000000000000000000000006020820152611050565b50600161046e565b6000610ddb73c03a2615d5efaf5f49f60b7bb6583eaec212fdf1610bb0565b1115610e435760008054600160a060020a03191673c03a2615d5efaf5f49f60b7bb6583eaec212fdf1179055610db460408051908101604052600c81527f6574685f726f707374656e3300000000000000000000000000000000000000006020820152611050565b6000610e6273b7a07bcf2ba2f2703b24c0691b5278999c59ac7e610bb0565b1115610eca5760008054600160a060020a03191673b7a07bcf2ba2f2703b24c0691b5278999c59ac7e179055610db460408051908101604052600981527f6574685f6b6f76616e00000000000000000000000000000000000000000000006020820152611050565b6000610ee973146500cfd35b22e4a392fe0adc06de1a1368ed48610bb0565b1115610f515760008054600160a060020a03191673146500cfd35b22e4a392fe0adc06de1a1368ed48179055610db460408051908101604052600b81527f6574685f72696e6b6562790000000000000000000000000000000000000000006020820152611050565b6000610f70736f485c8bf6fc43ea212e93bbf8ce046c7f1cb475610bb0565b1115610fa4575060008054600160a060020a031916736f485c8bf6fc43ea212e93bbf8ce046c7f1cb475179055600161046e565b6000610fc37320e12a1f859b3feae5fb2a0a32c18f5a65555bbf610bb0565b1115610ff7575060008054600160a060020a0319167320e12a1f859b3feae5fb2a0a32c18f5a65555bbf179055600161046e565b60006110167351efaf4c8b3c9afbd5ab9f4bbc82784ab6ef8faa610bb0565b111561104a575060008054600160a060020a0319167351efaf4c8b3c9afbd5ab9f4bbc82784ab6ef8faa179055600161046e565b50600090565b60028180516101da929160200190611075565b60206040519081016040526000815290565b828054600181600116156101000203166002900490600052602060002090601f016020900481019282601f106110b657805160ff19168380011785556110e3565b828001600101855582156110e3579182015b828111156110e35782518255916020019190600101906110c8565b506110ef9291506110f3565b5090565b61046e91905b808211156110ef57600081556001016110f95600a165627a7a72305820f6e435f772fa370bab1fb42a53e6e4f3b14b831c6d020d548c2126b46352698a0029",
  "source": "pragma solidity ^0.4.19;\n\nimport \"installed_contracts/oraclize-api/contracts/usingOraclize.sol\"; //Importing Oraclize\n\ncontract TestOraclizeCall is usingOraclize {\n\n    uint public price;\n    uint256 public amt;\n    event Log(string text);\n    event LogFailure(string text);\n    event LogPrice(uint256 amt);\n    mapping(bytes32=>bool) validIds;\n\n    function TestOraclizeCall() public {\n        updatePrice();\n    }\n\n\n    function __callback(bytes32 _myid, string _result, bytes proof){\n        if (!validIds[_myid]) revert();\n        require(msg.sender == oraclize_cbAddress());\n        Log(_result);\n        price = parseInt(_result);\n        delete validIds[_myid];\n        //updatePrice();\n\n    }\n\n    function oraclizeGetPrice() public constant returns (uint256){\n        return oraclize_getPrice(\"URL\");\n    }\n   \n\n    function updatePrice() payable {\n        LogPrice(oraclize_getPrice(\"URL\"));\n        bytes32 queryId = oraclize_query(\"URL\",\"json(https://min-api.cryptocompare.com/data/price?fsym=ETH&tsyms=USD).USD\");\n        validIds[queryId] = true;\n        \n    }\n\n}",
  "sourcePath": "/home/cheshta/Documents/projects-nodejs/crowdsale_v1.2/contracts/TestOraclizeCall.sol",
  "compiler": {
    "name": "solc",
    "version": "0.4.19+commit.c4cbbb05.Emscripten.clang"
  },
  "schemaVersion": "1.0.1",
  "updatedAt": "2018-07-20T06:25:52.520Z"
}